:020000040000FA
:0A0000002D29000000000000090097
:06000A00B30033087E2064
:10001000FF3903190E285B20B30A06280800B9002F
:10002000390E132039080F39F63E0318073E3A3EC1
:100030005B28BA003030B90064303A02031C232830
:10004000BA00B90A1C2839085B203030B9000A30E0
:100050003A02031C2E28BA00B90A272839085B2067
:1000600030303A075B2878207820782003308513D9
:1000700063207820033085136320782003308513B4
:1000800063207320023085136320732028304E20B4
:100090000C304E2001304E2006304E28B40085131F
:1000A000340E63208513340863207320FC3034053C
:1000B000031978200800B4008517340E63208517D3
:1000C000340863207328B500051305170430B60003
:1000D0008513B50C0318851705130517B60B68288B
:1000E0000514051008003630B700B70B7528080056
:0C00F0002030B8007320B80B7A280800FC
:0400FC008A018200F3
:1001000065346E34743465347234203463346F343F
:10011000643465343A34203420342034203420349C
:1001200000346334683461346E34673465342034A9
:1001300063346F3464346534203474346F343A3447
:10014000203400347234653470346534613474346E
:1001500020346E3465347734203463346F3464343F
:1001600065343A34003463346F3464346534203495
:1001700061346334633465347034743465346434A6
:10018000203420342034003424088A01820760346B
:1001900031343234333461343434353436346234C7
:1001A00037343834393463342A34303423346434C3
:1001B00028308400831683139B0183161C141A08AD
:1001C0008000840A9B0A83122C300402031DDD2860
:1001D000080028308400831683139B0183160008CF
:1001E0009A001C1555309D00AA309D009C140000FB
:1001F00000009C18F7289B0A8312840A2C30040202
:10020000031DEE280800A0002030A100A10B062944
:10021000A00B04290800A3008515033003218511D4
:1002200003300321A30B0C290800A4010430A5000E
:10023000FE306600A0300321060EA7000430A600A1
:10024000A40AA70C031CC428A60B20290314831698
:10025000860D8312A50B1A29003407309F008501F3
:10026000030165008601F030660083168113831256
:100270003320F0300B21D820850180304E20803093
:1002800005206B212830CA21031D3C292A30240275
:10029000031957290430850080304E20B3300520E3
:1002A0009630A200C8300321A20B52293C2902300B
:1002B000850080304E20913005206B212830DE21D2
:1002C00080304E20A23005206B212830CA21031D2A
:1002D0003929E9203C29AC01C0304E20A60126086E
:1002E0002C02031977292A305B20A60A6F292608D9
:1002F000043C03197F292D305B20A60A7729C030E2
:100300002C074E200E304E20F03066000608F039E3
:10031000F03A031D8429F0300321060808308B00D1
:1003200063001521FF39A40003198429F03003214B
:1003300004302C02031DB729C321031DAB29403013
:100340000B21C0304E200530A60020305B20A60BCC
:10035000A529240808002E308400000884038000AA
:10036000840A840A31300402031DAD29AC03C32181
:1003700003196B2940300B212D302C0784002408F1
:100380008000AC0A6C2923302402031908002A30AB
:1003900024020800B100AC012D302C0784000008B5
:1003A000B20031082C07840000083202031D080047
:1003B000AC0A04302C02031DCC290800B100AC01AA
:1003C0002D302C0784000008B20031082C0784006F
:1003D00032088000AC0A04302C02031DE02908001A
:044000000034003454
:02400E00503F21
:084200003100320033003400EC
:00000001FF
