:020000040000FA
:0A0000002D29000000000000090097
:06000A00B40034087E2062
:10001000FF3903190E285B20B40A06280800BA002D
:100020003A0E13203A080F39F63E0318073E3A3EBF
:100030005B28BB003030BA0064303B02031C23282D
:10004000BB00BA0A1C283A085B203030BA000A30DC
:100050003B02031C2E28BB00BA0A27283A085B2063
:1000600030303B075B2878207820782003308513D8
:1000700063207820033085136320782003308513B4
:1000800063207320023085136320732028304E20B4
:100090000C304E2001304E2006304E28B50085131E
:1000A000350E63208513350863207320FC30350539
:1000B000031978200800B5008517350E63208517D1
:1000C000350863207328B600051305170430B70000
:1000D0008513B60C0318851705130517B70B682889
:1000E0000514051008003630B800B80B7528080054
:0C00F0002030B9007320B90B7A280800FA
:0400FC008A018200F3
:1001000065346E34743465347234203463346F343F
:10011000643465343A34203420342034203420349C
:1001200000346334683461346E34673465342034A9
:1001300063346F3464346534203474346F343A3447
:10014000203400347234653470346534613474346E
:1001500020346E3465347734203463346F3464343F
:1001600065343A34003463346F3464346534203495
:1001700061346334633465347034743465346434A6
:10018000203420342034003424088A01820760346B
:1001900031343234333461343434353436346234C7
:1001A00037343834393463342A34303423346434C3
:1001B00028308400831683139B0183161C141A08AD
:1001C0008000840A9B0A83122C300402031DDD2860
:1001D000080028308400831683139B0183160008CF
:1001E0009A001C1555309D00AA309D009C140000FB
:1001F00000009C18F7289B0A8312840A2C30040202
:10020000031DEE280800A0002030A100A10B062944
:10021000A00B04290800A3008515033003218511D4
:1002200003300321A30B0C290800A4010430A5000E
:10023000FE306600A0300321060EA7000430A600A1
:10024000A40AA70C031CC428A60B20290314831698
:10025000860D8312A50B1A29003407309F008501F3
:10026000030165008601F030660083168113831256
:100270003320F0300B21D820B30180304E20803065
:1002800005203308850070212830CF21031D3D292A
:100290002A30240203195B290430B3063308850091
:1002A00080304E20B33005201930A200C830032121
:1002B000A20B56293D2980304E2091300520023076
:1002C0003304850070212830E32180304E20A23095
:1002D000052070212830CF21031D3929E9203D292F
:1002E000AC01C0304E20A60126082C0203197C293F
:1002F0002A305B20A60A74292608043C03198429A5
:100300002D305B20A60A7C29C0302C074E200E30F1
:100310004E20F03066000608F039F03A031D8929B6
:10032000F0300321060808308B0063001521FF39E7
:10033000A40003198929F030032104302C02031D85
:10034000BC29C821031DB02940300B21C0304E20EC
:100350000530A60020305B20A60BAA29240808003F
:100360002E308400000884038000840A840A31301F
:100370000402031DB229AC03C821031970294030BF
:100380000B212D302C07840024088000AC0A712931
:1003900023302402031908002A3024020800B10087
:1003A000AC012D302C0784000008B20031082C0766
:1003B000840000083202031D0800AC0A04302C023D
:1003C000031DD1290800B100AC012D302C07840099
:1003D0000008B20031082C07840032088000AC0A03
:0A03E00004302C02031DE52908007B
:044000000034003454
:02400E00503F21
:084200003100320033003400EC
:00000001FF
